{
	"Token/SupportInterface.sol": {
		"SupportsInterface": {
			"abi": [
				{
					"inputs": [],
					"stateMutability": "nonpayable",
					"type": "constructor"
				},
				{
					"inputs": [
						{
							"internalType": "bytes4",
							"name": "_interfaceID",
							"type": "bytes4"
						}
					],
					"name": "supportsInterface",
					"outputs": [
						{
							"internalType": "bool",
							"name": "",
							"type": "bool"
						}
					],
					"stateMutability": "view",
					"type": "function"
				}
			],
			"devdoc": {
				"details": "Implementation of standard for detect smart contract interfaces.",
				"kind": "dev",
				"methods": {
					"constructor": {
						"details": "Contract constructor."
					},
					"supportsInterface(bytes4)": {
						"details": "Function to check which interfaces are suported by this contract.",
						"params": {
							"_interfaceID": "Id of the interface."
						},
						"returns": {
							"_0": "True if _interfaceID is supported, false otherwise."
						}
					}
				},
				"stateVariables": {
					"supportedInterfaces": {
						"details": "Mapping of supported intefraces. You must not set element 0xffffffff to true."
					}
				},
				"version": 1
			},
			"evm": {
				"assembly": "    /* \"Token/SupportInterface.sol\":170:892  contract SupportsInterface is\r... */\n  mstore(0x40, 0x80)\n    /* \"Token/SupportInterface.sol\":427:505  constructor()\r... */\n  callvalue\n  dup1\n  iszero\n  tag_1\n  jumpi\n  0x00\n  dup1\n  revert\ntag_1:\n  pop\n    /* \"Token/SupportInterface.sol\":485:489  true */\n  0x01\n    /* \"Token/SupportInterface.sol\":451:470  supportedInterfaces */\n  0x00\n    /* \"Token/SupportInterface.sol\":451:482  supportedInterfaces[0x01ffc9a7] */\n  dup1\n    /* \"Token/SupportInterface.sol\":471:481  0x01ffc9a7 */\n  0x01ffc9a7\n    /* \"Token/SupportInterface.sol\":451:482  supportedInterfaces[0x01ffc9a7] */\n  0xe0\n  shl\n  not(0xffffffffffffffffffffffffffffffffffffffffffffffffffffffff)\n  and\n  dup2\n  mstore\n  0x20\n  add\n  swap1\n  dup2\n  mstore\n  0x20\n  add\n  0x00\n  keccak256\n  0x00\n    /* \"Token/SupportInterface.sol\":451:489  supportedInterfaces[0x01ffc9a7] = true */\n  0x0100\n  exp\n  dup2\n  sload\n  dup2\n  0xff\n  mul\n  not\n  and\n  swap1\n  dup4\n  iszero\n  iszero\n  mul\n  or\n  swap1\n  sstore\n  pop\n    /* \"Token/SupportInterface.sol\":170:892  contract SupportsInterface is\r... */\n  dataSize(sub_0)\n  dup1\n  dataOffset(sub_0)\n  0x00\n  codecopy\n  0x00\n  return\nstop\n\nsub_0: assembly {\n        /* \"Token/SupportInterface.sol\":170:892  contract SupportsInterface is\r... */\n      mstore(0x40, 0x80)\n      callvalue\n      dup1\n      iszero\n      tag_1\n      jumpi\n      0x00\n      dup1\n      revert\n    tag_1:\n      pop\n      jumpi(tag_2, lt(calldatasize, 0x04))\n      shr(0xe0, calldataload(0x00))\n      dup1\n      0x01ffc9a7\n      eq\n      tag_3\n      jumpi\n    tag_2:\n      0x00\n      dup1\n      revert\n        /* \"Token/SupportInterface.sol\":715:887  function supportsInterface(\r... */\n    tag_3:\n      tag_4\n      0x04\n      dup1\n      calldatasize\n      sub\n      dup2\n      add\n      swap1\n      tag_5\n      swap2\n      swap1\n      tag_6\n      jump\t// in\n    tag_5:\n      tag_7\n      jump\t// in\n    tag_4:\n      mload(0x40)\n      tag_8\n      swap2\n      swap1\n      tag_9\n      jump\t// in\n    tag_8:\n      mload(0x40)\n      dup1\n      swap2\n      sub\n      swap1\n      return\n    tag_7:\n        /* \"Token/SupportInterface.sol\":825:829  bool */\n      0x00\n        /* \"Token/SupportInterface.sol\":848:867  supportedInterfaces */\n      dup1\n        /* \"Token/SupportInterface.sol\":848:881  supportedInterfaces[_interfaceID] */\n      0x00\n        /* \"Token/SupportInterface.sol\":868:880  _interfaceID */\n      dup4\n        /* \"Token/SupportInterface.sol\":848:881  supportedInterfaces[_interfaceID] */\n      not(0xffffffffffffffffffffffffffffffffffffffffffffffffffffffff)\n      and\n      not(0xffffffffffffffffffffffffffffffffffffffffffffffffffffffff)\n      and\n      dup2\n      mstore\n      0x20\n      add\n      swap1\n      dup2\n      mstore\n      0x20\n      add\n      0x00\n      keccak256\n      0x00\n      swap1\n      sload\n      swap1\n      0x0100\n      exp\n      swap1\n      div\n      0xff\n      and\n        /* \"Token/SupportInterface.sol\":841:881  return supportedInterfaces[_interfaceID] */\n      swap1\n      pop\n        /* \"Token/SupportInterface.sol\":715:887  function supportsInterface(\r... */\n      swap2\n      swap1\n      pop\n      jump\t// out\n        /* \"#utility.yul\":7:144   */\n    tag_12:\n        /* \"#utility.yul\":52:57   */\n      0x00\n        /* \"#utility.yul\":90:96   */\n      dup2\n        /* \"#utility.yul\":77:97   */\n      calldataload\n        /* \"#utility.yul\":68:97   */\n      swap1\n      pop\n        /* \"#utility.yul\":106:138   */\n      tag_14\n        /* \"#utility.yul\":132:137   */\n      dup2\n        /* \"#utility.yul\":106:138   */\n      tag_15\n      jump\t// in\n    tag_14:\n        /* \"#utility.yul\":58:144   */\n      swap3\n      swap2\n      pop\n      pop\n      jump\t// out\n        /* \"#utility.yul\":150:410   */\n    tag_6:\n        /* \"#utility.yul\":208:214   */\n      0x00\n        /* \"#utility.yul\":257:259   */\n      0x20\n        /* \"#utility.yul\":245:254   */\n      dup3\n        /* \"#utility.yul\":236:243   */\n      dup5\n        /* \"#utility.yul\":232:255   */\n      sub\n        /* \"#utility.yul\":228:260   */\n      slt\n        /* \"#utility.yul\":225:227   */\n      iszero\n      tag_17\n      jumpi\n        /* \"#utility.yul\":273:274   */\n      0x00\n        /* \"#utility.yul\":270:271   */\n      dup1\n        /* \"#utility.yul\":263:275   */\n      revert\n        /* \"#utility.yul\":225:227   */\n    tag_17:\n        /* \"#utility.yul\":316:317   */\n      0x00\n        /* \"#utility.yul\":341:393   */\n      tag_18\n        /* \"#utility.yul\":385:392   */\n      dup5\n        /* \"#utility.yul\":376:382   */\n      dup3\n        /* \"#utility.yul\":365:374   */\n      dup6\n        /* \"#utility.yul\":361:383   */\n      add\n        /* \"#utility.yul\":341:393   */\n      tag_12\n      jump\t// in\n    tag_18:\n        /* \"#utility.yul\":331:393   */\n      swap2\n      pop\n        /* \"#utility.yul\":287:403   */\n      pop\n        /* \"#utility.yul\":215:410   */\n      swap3\n      swap2\n      pop\n      pop\n      jump\t// out\n        /* \"#utility.yul\":416:525   */\n    tag_19:\n        /* \"#utility.yul\":497:518   */\n      tag_21\n        /* \"#utility.yul\":512:517   */\n      dup2\n        /* \"#utility.yul\":497:518   */\n      tag_22\n      jump\t// in\n    tag_21:\n        /* \"#utility.yul\":492:495   */\n      dup3\n        /* \"#utility.yul\":485:519   */\n      mstore\n        /* \"#utility.yul\":475:525   */\n      pop\n      pop\n      jump\t// out\n        /* \"#utility.yul\":531:741   */\n    tag_9:\n        /* \"#utility.yul\":618:622   */\n      0x00\n        /* \"#utility.yul\":656:658   */\n      0x20\n        /* \"#utility.yul\":645:654   */\n      dup3\n        /* \"#utility.yul\":641:659   */\n      add\n        /* \"#utility.yul\":633:659   */\n      swap1\n      pop\n        /* \"#utility.yul\":669:734   */\n      tag_24\n        /* \"#utility.yul\":731:732   */\n      0x00\n        /* \"#utility.yul\":720:729   */\n      dup4\n        /* \"#utility.yul\":716:733   */\n      add\n        /* \"#utility.yul\":707:713   */\n      dup5\n        /* \"#utility.yul\":669:734   */\n      tag_19\n      jump\t// in\n    tag_24:\n        /* \"#utility.yul\":623:741   */\n      swap3\n      swap2\n      pop\n      pop\n      jump\t// out\n        /* \"#utility.yul\":747:837   */\n    tag_22:\n        /* \"#utility.yul\":781:788   */\n      0x00\n        /* \"#utility.yul\":824:829   */\n      dup2\n        /* \"#utility.yul\":817:830   */\n      iszero\n        /* \"#utility.yul\":810:831   */\n      iszero\n        /* \"#utility.yul\":799:831   */\n      swap1\n      pop\n        /* \"#utility.yul\":789:837   */\n      swap2\n      swap1\n      pop\n      jump\t// out\n        /* \"#utility.yul\":843:992   */\n    tag_26:\n        /* \"#utility.yul\":879:886   */\n      0x00\n        /* \"#utility.yul\":919:985   */\n      0xffffffff00000000000000000000000000000000000000000000000000000000\n        /* \"#utility.yul\":912:917   */\n      dup3\n        /* \"#utility.yul\":908:986   */\n      and\n        /* \"#utility.yul\":897:986   */\n      swap1\n      pop\n        /* \"#utility.yul\":887:992   */\n      swap2\n      swap1\n      pop\n      jump\t// out\n        /* \"#utility.yul\":998:1118   */\n    tag_15:\n        /* \"#utility.yul\":1070:1093   */\n      tag_29\n        /* \"#utility.yul\":1087:1092   */\n      dup2\n        /* \"#utility.yul\":1070:1093   */\n      tag_26\n      jump\t// in\n    tag_29:\n        /* \"#utility.yul\":1063:1068   */\n      dup2\n        /* \"#utility.yul\":1060:1094   */\n      eq\n        /* \"#utility.yul\":1050:1052   */\n      tag_30\n      jumpi\n        /* \"#utility.yul\":1108:1109   */\n      0x00\n        /* \"#utility.yul\":1105:1106   */\n      dup1\n        /* \"#utility.yul\":1098:1110   */\n      revert\n        /* \"#utility.yul\":1050:1052   */\n    tag_30:\n        /* \"#utility.yul\":1040:1118   */\n      pop\n      jump\t// out\n\n    auxdata: 0xa26469706673582212201565327d98347c586012adacb5b81ee29fe7062b23fc77458575de476e328b9a64736f6c63430008040033\n}\n",
				"bytecode": {
					"linkReferences": {},
					"object": "608060405234801561001057600080fd5b5060016000806301ffc9a760e01b7bffffffffffffffffffffffffffffffffffffffffffffffffffffffff1916815260200190815260200160002060006101000a81548160ff0219169083151502179055506101b4806100716000396000f3fe608060405234801561001057600080fd5b506004361061002b5760003560e01c806301ffc9a714610030575b600080fd5b61004a600480360381019061004591906100dc565b610060565b6040516100579190610114565b60405180910390f35b6000806000837bffffffffffffffffffffffffffffffffffffffffffffffffffffffff19167bffffffffffffffffffffffffffffffffffffffffffffffffffffffff1916815260200190815260200160002060009054906101000a900460ff169050919050565b6000813590506100d681610167565b92915050565b6000602082840312156100ee57600080fd5b60006100fc848285016100c7565b91505092915050565b61010e8161012f565b82525050565b60006020820190506101296000830184610105565b92915050565b60008115159050919050565b60007fffffffff0000000000000000000000000000000000000000000000000000000082169050919050565b6101708161013b565b811461017b57600080fd5b5056fea26469706673582212201565327d98347c586012adacb5b81ee29fe7062b23fc77458575de476e328b9a64736f6c63430008040033",
					"opcodes": "PUSH1 0x80 PUSH1 0x40 MSTORE CALLVALUE DUP1 ISZERO PUSH2 0x10 JUMPI PUSH1 0x0 DUP1 REVERT JUMPDEST POP PUSH1 0x1 PUSH1 0x0 DUP1 PUSH4 0x1FFC9A7 PUSH1 0xE0 SHL PUSH28 0xFFFFFFFFFFFFFFFFFFFFFFFFFFFFFFFFFFFFFFFFFFFFFFFFFFFFFFFF NOT AND DUP2 MSTORE PUSH1 0x20 ADD SWAP1 DUP2 MSTORE PUSH1 0x20 ADD PUSH1 0x0 KECCAK256 PUSH1 0x0 PUSH2 0x100 EXP DUP2 SLOAD DUP2 PUSH1 0xFF MUL NOT AND SWAP1 DUP4 ISZERO ISZERO MUL OR SWAP1 SSTORE POP PUSH2 0x1B4 DUP1 PUSH2 0x71 PUSH1 0x0 CODECOPY PUSH1 0x0 RETURN INVALID PUSH1 0x80 PUSH1 0x40 MSTORE CALLVALUE DUP1 ISZERO PUSH2 0x10 JUMPI PUSH1 0x0 DUP1 REVERT JUMPDEST POP PUSH1 0x4 CALLDATASIZE LT PUSH2 0x2B JUMPI PUSH1 0x0 CALLDATALOAD PUSH1 0xE0 SHR DUP1 PUSH4 0x1FFC9A7 EQ PUSH2 0x30 JUMPI JUMPDEST PUSH1 0x0 DUP1 REVERT JUMPDEST PUSH2 0x4A PUSH1 0x4 DUP1 CALLDATASIZE SUB DUP2 ADD SWAP1 PUSH2 0x45 SWAP2 SWAP1 PUSH2 0xDC JUMP JUMPDEST PUSH2 0x60 JUMP JUMPDEST PUSH1 0x40 MLOAD PUSH2 0x57 SWAP2 SWAP1 PUSH2 0x114 JUMP JUMPDEST PUSH1 0x40 MLOAD DUP1 SWAP2 SUB SWAP1 RETURN JUMPDEST PUSH1 0x0 DUP1 PUSH1 0x0 DUP4 PUSH28 0xFFFFFFFFFFFFFFFFFFFFFFFFFFFFFFFFFFFFFFFFFFFFFFFFFFFFFFFF NOT AND PUSH28 0xFFFFFFFFFFFFFFFFFFFFFFFFFFFFFFFFFFFFFFFFFFFFFFFFFFFFFFFF NOT AND DUP2 MSTORE PUSH1 0x20 ADD SWAP1 DUP2 MSTORE PUSH1 0x20 ADD PUSH1 0x0 KECCAK256 PUSH1 0x0 SWAP1 SLOAD SWAP1 PUSH2 0x100 EXP SWAP1 DIV PUSH1 0xFF AND SWAP1 POP SWAP2 SWAP1 POP JUMP JUMPDEST PUSH1 0x0 DUP2 CALLDATALOAD SWAP1 POP PUSH2 0xD6 DUP2 PUSH2 0x167 JUMP JUMPDEST SWAP3 SWAP2 POP POP JUMP JUMPDEST PUSH1 0x0 PUSH1 0x20 DUP3 DUP5 SUB SLT ISZERO PUSH2 0xEE JUMPI PUSH1 0x0 DUP1 REVERT JUMPDEST PUSH1 0x0 PUSH2 0xFC DUP5 DUP3 DUP6 ADD PUSH2 0xC7 JUMP JUMPDEST SWAP2 POP POP SWAP3 SWAP2 POP POP JUMP JUMPDEST PUSH2 0x10E DUP2 PUSH2 0x12F JUMP JUMPDEST DUP3 MSTORE POP POP JUMP JUMPDEST PUSH1 0x0 PUSH1 0x20 DUP3 ADD SWAP1 POP PUSH2 0x129 PUSH1 0x0 DUP4 ADD DUP5 PUSH2 0x105 JUMP JUMPDEST SWAP3 SWAP2 POP POP JUMP JUMPDEST PUSH1 0x0 DUP2 ISZERO ISZERO SWAP1 POP SWAP2 SWAP1 POP JUMP JUMPDEST PUSH1 0x0 PUSH32 0xFFFFFFFF00000000000000000000000000000000000000000000000000000000 DUP3 AND SWAP1 POP SWAP2 SWAP1 POP JUMP JUMPDEST PUSH2 0x170 DUP2 PUSH2 0x13B JUMP JUMPDEST DUP2 EQ PUSH2 0x17B JUMPI PUSH1 0x0 DUP1 REVERT JUMPDEST POP JUMP INVALID LOG2 PUSH5 0x6970667358 0x22 SLT KECCAK256 ISZERO PUSH6 0x327D98347C58 PUSH1 0x12 0xAD 0xAC 0xB5 0xB8 0x1E 0xE2 SWAP16 0xE7 MOD 0x2B 0x23 0xFC PUSH24 0x458575DE476E328B9A64736F6C6343000804003300000000 "
				},
				"gasEstimates": {
					"creation": {
						"codeDepositCost": "87200",
						"executionCost": "21095",
						"totalCost": "108295"
					},
					"external": {
						"supportsInterface(bytes4)": "1524"
					}
				},
				"methodIdentifiers": {
					"supportsInterface(bytes4)": "01ffc9a7"
				}
			},
			"storageLayout": {
				"storage": [
					{
						"astId": 855,
						"contract": "Token/SupportInterface.sol:SupportsInterface",
						"label": "supportedInterfaces",
						"offset": 0,
						"slot": "0",
						"type": "t_mapping(t_bytes4,t_bool)"
					}
				],
				"types": {
					"t_bool": {
						"encoding": "inplace",
						"label": "bool",
						"numberOfBytes": "1"
					},
					"t_bytes4": {
						"encoding": "inplace",
						"label": "bytes4",
						"numberOfBytes": "4"
					},
					"t_mapping(t_bytes4,t_bool)": {
						"encoding": "mapping",
						"key": "t_bytes4",
						"label": "mapping(bytes4 => bool)",
						"numberOfBytes": "32",
						"value": "t_bool"
					}
				}
			},
			"userdoc": {
				"kind": "user",
				"methods": {},
				"version": 1
			}
		}
	}
}